:020000040000fa
:080000000210040000000000e2
:020000040000fa
:1020000004000000ef4121000e7f24000e01880033
:10201000000000000c000700207b220001002000cf
:1020200011000700000020000000e0000200320064
:102030000000020000000000ae31020000000000bd
:102040000040da000000fe004440a9000023200008
:102050000000e0000300320000002000a001880022
:102060004440a8000000060091018800800078002c
:102070000000eb0015003700e280400032a0b40001
:102080009101ba00e280400032a0b4009102ba008f
:10209000e280400032a0b4000002eb00472bde00db
:1020a000f507b200602ce10004003a000059eb0093
:1020b0008301e900fdff3e00040037006128e100d4
:1020c000010032000082eb00040007001101ba0099
:1020d0000200e000e8ff3a00000006003159ba00b3
:1020e0008301e9000c0032002159ba008301e900a4
:1020f000080032000400e00003003a00e2804000e3
:1021000032a0b400f5ff370011d9ba008301e9000d
:10211000faff3a008100e800e180400032a0b400fc
:102120000000060006c2bf000008a300fdff3a0041
:1021300006c2bf000028a300faff3a0006c2bf0093
:102140000038a300f7ff3a0006c2bf000018a30042
:10215000f4ff3a0006c2bf000048a300f1ff3a00b6
:1021600009c2bf000068a300eeff3a0000000600ad
:102170000662a80006c2bf000038a300fdff3a00b7
:1021800008c2a900001080000080fb0000000600cb
:102190000080fb00101088000080eb000842e20085
:1021a0000800350009c2bf000068a300fdff3a0027
:1021b000dcff0700e0ff2f000942e20001003500cc
:1021c0000000eb000000060006a2a8000682a8009e
:1021d0000000060021108800301088000000060072
:1021e0000622a800000006000602a8000000060063
:1021f0000642a80000000600800178000001780077
:10220000010037000201e8001204e000fdff3a007f
:1022100031407800005978000004e000fcff3a00eb
:102220000300780000000600800078003004e00021
:10223000feff3a00010050000000e9000000060027
:10224000810178000002eb000b003700e4407800c9
:102250000104e000030032000402e80093cf5000c4
:10226000040032008180fb001380fb0000805000de
:10227000000006008301e800820f5200f3ff3a00dd
:102280000000050000037800800278000202780058
:102290008001eb00080037000402e90063c0780009
:1022a000805a78008301e8000004e00002003a0050
:1022b0008000eb0006003700828f5100f6ff3a00e5
:1022c000fbff37000040eb0080f07a008100e8005f
:1022d000848f5000fbff3a000600780000000600e3
:020000040000fa
:0200000401f009
:04000000ffff0000fe
:020000040000fa
:0200000401f009
:04000400ffff0000fa
:020000040000fa
:0200000401f009
:04000800ffff0000f6
:020000040000fa
:0200000401f009
:04000c0079ff000078
:020000040000fa
:0200000401f009
:040010009bff000052
:020000040000fa
:0200000401f009
:040014007fff00006a
:020000040000fa
:0200000401f009
:04001800eeff0000f7
:020000040000fa
:0200000401f009
:04001c00deff000003
:020000040000fa
:10000800803300008033000080330000803300001c
:10001800803300008033000080330000803300000c
:10002800803300008033000080330000a0130000fc
:1000380080330000803300008033000080330000ec
:1000480080330000803300008033000080330000dc
:1000580080330000803300008033000080330000cc
:1000680080330000803300008033000080330000bc
:1000780080330000803300008033000080330000ac
:10008800803300008033000080330000803300009c
:10009800803300008033000080330000803300008c
:1000a800803300008033000080330000803300007c
:1000b800803300008033000080330000803300006c
:1000c800803300008033000080330000803300005c
:1000d800803300008033000080330000803300004c
:1000e800803300008033000080330000803300003c
:1000f800803300008033000080330000803300002c
:10010800803300008033000080330000803300001b
:10011800803300008033000080330000803300000b
:1001280080330000803300008033000080330000fb
:1001380080330000803300008033000080330000eb
:1001480080330000803300008033000080330000db
:1001580080330000803300008033000080330000cb
:1001680080330000803300008033000080330000bb
:1001780080330000803300008033000080330000ab
:10018800803300008033000080330000803300009b
:10019800803300008033000080330000803300008b
:1001a800803300008033000080330000803300007b
:1001b800803300008033000080330000803300006b
:1001c800803300008033000080330000803300005b
:1001d800803300008033000080330000803300004b
:1001e800803300008033000080330000803300003b
:0801f800803300008033000099
:020000040000fa
:10020800803300008033000080330000803300001a
:10021800803300008033000080330000803300000a
:10022800803300008033000080330000a0130000fa
:1002380080330000803300008033000080330000ea
:1002480080330000803300008033000080330000da
:1002580080330000803300008033000080330000ca
:1002680080330000803300008033000080330000ba
:1002780080330000803300008033000080330000aa
:10028800803300008033000080330000803300009a
:10029800803300008033000080330000803300008a
:1002a800803300008033000080330000803300007a
:1002b800803300008033000080330000803300006a
:1002c800803300008033000080330000803300005a
:1002d800803300008033000080330000803300004a
:1002e800803300008033000080330000803300003a
:1002f800803300008033000080330000803300002a
:100308008033000080330000803300008033000019
:100318008033000080330000803300008033000009
:1003280080330000803300008033000080330000f9
:1003380080330000803300008033000080330000e9
:1003480080330000803300008033000080330000d9
:1003580080330000803300008033000080330000c9
:1003680080330000803300008033000080330000b9
:1003780080330000803300008033000080330000a9
:100388008033000080330000803300008033000099
:100398008033000080330000803300008033000089
:1003a8008033000080330000803300008033000079
:1003b8008033000080330000803300008033000069
:1003c8008033000080330000803300008033000059
:1003d8008033000080330000803300008033000049
:1003e8008033000080330000803300008033000039
:0803f800803300008033000097
:020000040000fa
:1022e00047450000542000002f000000504f000020
:1022f00053540000202f000000750000426f0000c2
:1023000061720000642000006e650000772000000c
:10231000636f00006c6f0000720000004854000002
:10232000545000002f3100002e30000020320000f9
:1023300030300000204f00004b0d00000a43000029
:102340006f6e0000746500006e7400002d54000074
:1023500079700000653a0000207400006578000084
:10236000742f0000687400006d6c00000d0a0000fe
:102370000d0a00003c6200006f640000792000003c
:1023800073740000796c0000653d0000226200005b
:10239000616300006b670000726f0000756e0000e3
:1023a000642d0000636f00006c6f0000723a000043
:1023b0004646000046460000464600003b2200001c
:1023c0003e0d00000a0000005b0a00002020000013
:1023d000207b00000a2000002020000020200000b8
:1023e0002020000022690000642200003a20000042
:1023f00022310000222c00000a20000020200000d2
:102400002020000020200000226e0000616d0000ee
:10241000652200003a20000022750000426f000093
:1024200061720000642000007765000062620000b5
:102430006f61000072640000222c00000a2000007e
:102440002020000020200000202000002269000041
:102450007061000064640000722200003a200000f5
:1024600022310000393200002e31000036380000e1
:102470002e3000002e31000030320000222c0000ef
:102480000a20000020200000202000002020000062
:1024900022730000756200006e650000746d00001c
:1024a000617300006b2200003a200000223200001d
:1024b000353500002e320000353500002e32000088
:1024c000353500002e300000222c00000a200000cc
:1024d00020200000202000002020000022670000b3
:1024e000617400006577000061790000223a000005
:1024f0002022000031390000322e00003136000069
:10250000382e0000302e0000312200002c0a00007e
:1025100020200000202000002020000020220000b9
:10252000616400006a75000073740000537000005d
:1025300065650000644f0000665000006174000093
:1025400074650000726e0000223a00002022000034
:10255000696e0000742200002c0a00002020000098
:1025600020200000202000002022000074750000c0
:10257000726e00004c650000647300004f6e000036
:102580004f660000662200003a2000002262000030
:102590006f6f00006c650000616e0000220a000091
:1025a00020200000207d00000a5d00000a000000dd
:1025b00063680000656300006b6500006400000054
:1025c0003c7000003e3c0000696e00007075000029
:1025d0007420000074790000706500003d22000046
:1025e00072610000646900006f220000206e00002c
:1025f000616d0000653d0000227200006164000012
:10260000696f000022200000766100006c750000f8
:10261000653d00002230000022200000003e000046
:1026200054750000726e0000206f000066660000a6
:102630000d0a0000003c0000627200003e3c0000f9
:10264000696e00007075000074200000747900004d
:10265000706500003d2200007261000064690000a6
:102660006f220000206e0000616d0000653d0000db
:102670002272000061640000696f000022200000e7
:10268000766100006c750000653d0000223100009d
:1026900022200000003e00004c6f0000756e00001c
:1026a00067650000206d00006f640000650d00008c
:1026b0000a0000003c2f000073740000726f0000dd
:1026c0006e6700003e3c0000703e00000d0a0000f6
:1026d000003c0000696e000070750000742000006e
:1026e00074790000706500003d22000073750000e1
:1026f000626d000069740000223e00000d0a0000b7
:10270000003c00002f6600006f7200006d3e00006c
:102710003c2f000073700000616e00003e3c000022
:102720002f6200006f640000793e00003c2f000023
:10273000687400006d6c00003e0d00000a0000008f
:020000040000fa
:102740003600f800809fbe00829fbe00849fbe00be
:10275000869fbe000000fa008460a90005e1a90080
:102760000000eb000008880005e1a800dcd3bf00f2
:10277000e14f500002003a0020a420001904070095
:10278000dcd3bf00e24f500002003a0020b020002e
:1027900014040700dcd3bf00e34f500002003a00ee
:1027a00020bc20000f040700dcd3bf00e44f500022
:1027b00002003a0020d420000a040700dcd3bf0046
:1027c000e54f500002003a0020c820000504070031
:1027d000dcd3bf00e64f500002003a0020e02000aa
:1027e00000040700dcd3bf00e74f500004003a00ac
:1027f00020ec2000fb0307000040eb00dcf3b700f7
:10280000d09e80000000e800d09e8800d8d3bf0092
:102810000040e800d8f3b700d8d3bf008080fb00a9
:1028200000408000808f50008901350083cfbf00b9
:10283000e14f500002003a0010c0b30082efb70031
:1028400083cfbf00e24f500002003a0020c0b30027
:1028500082efb70083cfbf00e34f500002003a0081
:1028600030c0b30082efb70083cfbf00e44f500009
:1028700002003a0040c0b30082efb70083cfbf0030
:10288000e54f500002003a0050c0b30082efb7009d
:1028900083cfbf00e64f500002003a0060c0b30093
:1028a00082efb70083cfbf00e74f500002003a002d
:1028b00070c0b30082efb70083cfbf00e84f500075
:1028c00002003a0080c0b30082efb70083cfbf00a0
:1028d000e94f500002003a0090c0b30082efb70009
:1028e00083cfbf00ea4f500002003a00a0c0b300ff
:1028f00082efb70083cfbf00eb4f500002003a00d9
:10290000b0c0b30082efb70083cfbf00ec4f5000e0
:1029100002003a00c0c0b30082efb70083cfbf000f
:10292000ed4f500002003a00d0c0b30082efb70074
:1029300083cfbf00ee4f500002003a00e0c0b3006a
:1029400082efb70083cfbf00ef4f500002003a0084
:10295000f0c0b30082efb70083cfbf00f04f50004c
:1029600002003a0000c1b30082efb70083cfbf007e
:10297000f14f500002003a0010c1b30082efb700df
:1029800083cfbf00f24f500002003a0020c1b300d5
:1029900082efb70083cfbf00f34f500002003a0030
:1029a00030c1b30082efb70083cfbf00f44f5000b7
:1029b00002003a0040c1b30082efb70083cfbf00ee
:1029c000f54f500002003a0050c1b30082efb7004b
:1029d00083cfbf00f64f500002003a0060c1b30041
:1029e00082efb70083cfbf00f74f500002003a00dc
:1029f00070c1b30082efb70083cfbf00f84f500023
:102a000002003a0080c1b30082efb70083cfbf005d
:102a1000f94f500002003a0090c1b30082efb700b6
:102a200083cfbf00fa4f500002003a00a0c1b300ac
:102a300082efb70083cfbf00fb4f500002003a0087
:102a4000b0c1b30082efb70083cfbf00fc4f50008e
:102a500002003a00c0c1b30082efb70083cfbf00cd
:102a6000fd4f500002003a00d0c1b30082efb70022
:102a700083cfbf00fe4f500002003a00e0c1b30018
:102a800082efb70083cfbf00ff4f500002003a0033
:102a9000f0c1b30082efb70031f820009140780018
:102aa00000c2b30080cf500002003a0000c2b30061
:102ab00082efb70031f820009140780010c2b300d7
:102ac00080cf500002003a0000c2b30082efb7008e
:102ad00031f820009140780020c2b30080cf500030
:102ae00002003a00f0c1b30082efb70031f82000d5
:102af0009140780030c2b30080cf500002003a000d
:102b0000e0c1b30082efb70031f8200091407800b7
:102b100040c2b30080cf500002003a00d0c1b300e1
:102b200082efb70031f820009140780050c2b30026
:102b300080cf500002003a00c0c1b30082efb7005e
:102b400031f820009140780060c2b30080cf50007f
:102b500002003a00b0c1b30082efb70031f82000a4
:102b60009140780070c2b30080cf500002003a005c
:102b7000a0c1b30082efb70031f820009140780087
:102b800080c2b30080cf500002003a0090c1b30071
:102b900082efb70031f820009140780090c2b30076
:102ba00080cf500002003a0080c1b30082efb7002e
:102bb00031f8200091407800a0c2b30080cf5000cf
:102bc00002003a0070c1b30082efb70031f8200074
:102bd00091407800b0c2b30080cf500002003a00ac
:102be00060c1b30082efb70031f820009140780057
:102bf000c0c2b30080cf500002003a0050c1b30001
:102c000082efb70031f8200091407800d0c2b300c5
:102c100080cf500002003a0040c1b30082efb700fd
:102c200031f8200091407800e0c2b30080cf50001e
:102c300002003a0030c1b30082efb70031f8200043
:102c400091407800f0c2b30080cf500002003a00fb
:102c500020c1b30082efb70031f820009140780026
:102c600000c3b30080cf500002003a0010c1b3008f
:102c700082efb70031f820009140780010c3b30014
:102c800080cf500002003a0000c1b30082efb700cd
:102c900031f820009140780020c3b30080cf50006d
:102ca00002003a00f0c0b30082efb70031f8200014
:102cb0009140780030c3b30080cf500002003a004a
:102cc000e0c0b30082efb70031f8200091407800f7
:102cd00040c3b30080cf500002003a00d0c0b30020
:102ce00082efb70031f820009140780050c3b30064
:102cf00080cf500002003a00c0c0b30082efb7009e
:102d000031f820009140780060c3b30080cf5000bc
:102d100002003a00b0c0b30082efb70031f82000e3
:102d20009140780070c3b30080cf500002003a0099
:102d3000a0c0b30082efb70031f8200091407800c6
:102d400080c3b30080cf500002003a0090c0b300af
:102d500082efb70031f820009140780090c3b300b3
:102d600080cf500002003a0080c0b30082efb7006d
:102d700031f8200091407800a0c3b30080cf50000c
:102d800002003a0070c0b30082efb70031f82000b3
:102d900091407800b0c3b30080cf500002003a00e9
:102da00060c0b30082efb70031f820009140780096
:102db000c0c3b30080cf500002003a0050c0b3003f
:102dc00082efb70031f8200091407800d0c3b30003
:102dd00080cf500002003a0040c0b30082efb7003d
:102de00031f8200091407800e0c3b30080cf50005c
:102df00002003a0030c0b30082efb70031f8200083
:102e000091407800f0c3b30080cf500002003a0038
:102e100020c0b30082efb70031f820009140780065
:102e200000c4b30080cf500004003a0010c0b300cb
:102e300082efb7000040eb0083efb70083cfbf0005
:102e40000040e80083efb7000040eb00d8f3b70084
:102e5000d19e8000f00f2000808f500004003600cb
:102e600020802000b503070010002000d09e8800bd
:102e7000dcd3bf000004e00002003a000000eb00d9
:102e80006f0607000080fa004f03be004f02be002d
:102e90004f01be004f00be003600f90000400600a2
:102ea0000200fa000040eb00004f78000040eb0009
:102eb000004f780008003700c442a900c462a8008f
:102ec00010002000f70d0700c462a90010002000c8
:102ed000f40d07001e4fe800f0cbb3009e4f10002a
:102ee000f5ff3600c442a900c482a80010002000eb
:102ef000ec0d0700c482a90010002000d20d0700cd
:102f00000080fa00000006000800fa00000f7800b8
:102f1000214798002e4090000080fb006101b9001d
:102f20000080eb008080eb000201400083814800bc
:102f30002207980033079800f000200001002000cd
:102f40002e019000be019000800f5100818f59002a
:102f500022023e002e009000be00900000600100a2
:102f60000f0037002f0037004f0037006f00370089
:102f70008f003700af003700cf003700ef00370079
:102f80000f0137002f0137004f0137006f01370065
:102f90008f013700af013700cf013700ef01370055
:102fa0000000eb000f0207000000eb000d0207001d
:102fb0000000eb000b0207000000eb000902070015
:102fc0000000eb00070207000000eb00050207000d
:102fd0000000eb00030207000000eb000102070005
:102fe0000000eb00ff0107000000eb00fd010700ff
:102ff0000000eb00fb0107000000eb00f9010700f7
:103000000000eb00f70107000000eb00f5010700ee
:103010000000eb00f30107001e007800f10107003b
:10302000ee0137000000eb00ee0107000000eb00ae
:10303000ec0107000000eb00ea0107000000eb00d4
:10304000e80107000000eb00e60107000000eb00cc
:10305000e40107000000eb00e20107000000eb00c4
:10306000e00107000000eb00de0107000000eb00bc
:10307000dc0107000000eb00da0107000000eb00b4
:10308000d80107000000eb00d60107000000eb00ac
:10309000d40107001e007800d20107001e0078004e
:1030a000d0010700cd0137000000eb00cd01070083
:1030b0000000eb00cb0107000000eb00c901070096
:1030c0000000eb00c70107000000eb00c50107008e
:1030d0000000eb00c30107000000eb00c101070086
:1030e0000000eb00bf0107000000eb00bd0107007e
:1030f0000000eb00bb0107000000eb00b901070076
:103100000000eb00b70107000000eb00b50107006d
:103110001e007800b30107001e007800b10107000f
:103120001e007800af010700ac0137000000eb0083
:10313000ac0107000000eb00aa0107000000eb0053
:10314000a80107000000eb00a60107000000eb004b
:10315000a40107000000eb00a20107000000eb0043
:10316000a00107000000eb009e0107000000eb003b
:103170009c0107000000eb009a0107000000eb0033
:10318000980107000000eb00960107001e00780080
:10319000940107001e007800920107001e007800cd
:1031a000900107001e0078008e0107008b01370098
:1031b0000000eb008b0107000000eb008901070015
:1031c0000000eb00870107000000eb00850107000d
:1031d0000000eb00830107000000eb008101070005
:1031e0000000eb007f0107000000eb007d010700fd
:1031f0000000eb007b0107000000eb0079010700f5
:103200000000eb00770107001e0078007501070041
:103210001e007800730107001e007800710107008e
:103220001e0078006f0107001e0078006d01070086
:103230006a0137000000eb006a0107000000eb00a4
:10324000680107000000eb00660107000000eb00ca
:10325000640107000000eb00620107000000eb00c2
:10326000600107000000eb005e0107000000eb00ba
:103270005c0107000000eb005a0107000000eb00b2
:10328000580107001e007800560107001e00780054
:10329000540107001e007800520107001e0078004c
:1032a000500107001e0078004e0107001e00780044
:1032b0004c010700490137000000eb0049010700fd
:1032c0000000eb00470107000000eb00450107008c
:1032d0000000eb00430107000000eb004101070084
:1032e0000000eb003f0107000000eb003d0107007c
:1032f0000000eb003b0107000000eb003901070074
:103300001e007800370107001e0078003501070015
:103310001e007800330107001e007800310107000d
:103320001e0078002f0107001e0078002d01070005
:103330001e0078002b010700280137000000eb0079
:10334000280107000000eb00260107000000eb0049
:10335000240107000000eb00220107000000eb0041
:10336000200107000000eb001e0107000000eb0039
:103370001c0107000000eb001a0107001e00780086
:10338000180107001e007800160107001e007800d3
:10339000140107001e007800120107001e007800cb
:1033a000100107001e0078000e0107001e007800c3
:1033b0000c0107001e0078000a0107000701370012
:1033c0000000eb00070107000000eb00050107000b
:1033d0000000eb00030107000000eb000101070003
:1033e0000000eb00ff0007000000eb00fd000700fd
:1033f0000000eb00fb0007001e007800f90007004a
:103400001e007800f70007001e007800f500070096
:103410001e007800f30007001e007800f10007008e
:103420001e007800ef0007001e007800ed00070086
:103430001e007800eb0007001e007800e90007007e
:10344000e60037000000eb00e60007000000eb009c
:10345000e40007000000eb00e20007000000eb00c2
:10346000e00007000000eb00de0007000000eb00ba
:10347000dc0007001e007800da0007001e0078005c
:10348000d80007001e007800d60007001e00780054
:10349000d40007001e007800d20007001e0078004c
:1034a000d00007001e007800ce0007001e00780044
:1034b000cc0007001e007800ca0007001e0078003c
:1034c000c8000700c50037000000eb00c50007007a
:1034d0000000eb00c30007000000eb00c100070084
:1034e0000000eb00bf0007000000eb00bd0007007c
:1034f0001e007800bb0007001e007800b90007001e
:103500001e007800b70007001e007800b500070015
:103510001e007800b30007001e007800b10007000d
:103520001e007800af0007001e007800ad00070005
:103530001e007800ab0007001e007800a9000700fd
:103540001e007800a7000700a40037000000eb0071
:10355000a40007000000eb00a20007000000eb0041
:10356000a00007000000eb009e0007001e0078008e
:103570009c0007001e0078009a0007001e007800db
:10358000980007001e007800960007001e007800d3
:10359000940007001e007800920007001e007800cb
:1035a000900007001e0078008e0007001e007800c3
:1035b0008c0007001e0078008a0007001e007800bb
:1035c000880007001e00780086000700830037008f
:1035d0000000eb00830007000000eb008100070003
:1035e0000000eb007f0007001e0078007d00070050
:1035f0001e0078007b0007001e007800790007009d
:103600001e007800770007001e0078007500070094
:103610001e007800730007001e007800710007008c
:103620001e0078006f0007001e0078006d00070084
:103630001e0078006b0007001e007800690007007c
:103640001e007800670007001e0078006500070074
:10365000620037000000eb00620007000000eb0092
:10366000600007001e0078005e0007001e00780062
:103670005c0007001e0078005a0007001e0078005a
:10368000580007001e007800560007001e00780052
:10369000540007001e007800520007001e0078004a
:1036a000500007001e0078004e0007001e00780042
:1036b0004c0007001e0078004a0007001e0078003a
:1036c000480007001e007800460007001e00780032
:1036d00044000700410037000000eb0041000700f4
:1036e0001e0078003f0007001e0078003d00070024
:1036f0001e0078003b0007001e007800390007001c
:103700001e007800370007001e0078003500070013
:103710001e007800330007001e007800310007000b
:103720001e0078002f0007001e0078002d00070003
:103730001e0078002b0007001e00780029000700fb
:103740001e007800270007001e00780025000700f3
:103750001e00780023000700200037001e007800bc
:10376000200007001e0078001e0007001e007800e1
:103770001c0007001e0078001a0007001e007800d9
:10378000180007001e007800160007001e007800d1
:10379000140007001e007800120007001e007800c9
:1037a000100007001e0078000e0007001e007800c1
:1037b0000c0007001e0078000a0007001e007800b9
:1037c000080007001e007800060007001e007800b1
:1037d000040007001e007800020007000080fa00c5
:1037e000000006000400fa00100798000040eb00fb
:1037f000004f78000040eb00004f780011003700c8
:103800001e80fb00800078001e00900000804000b9
:10381000104078000080fb00610060000004e000c0
:1038200002003200c442a80001003700c442a900cf
:10383000c462a800100020009a0b0700c462a9000f
:103840001e4fe800f0cbb3009e4f1000ecff360097
:10385000c482a80010002000920b0700c482a900b7
:103860000080fa0000000600c400fa0010a79800cb
:1038700000c9b300004f780000c9b300004f7800c2
:10388000090037001e81fb001e80fb0080007800cd
:103890001ea0900000804000904078000e00e800dc
:1038a000017178001e4fe800f0cbb3009e4f10006e
:1038b000f4ff36001ea09000010920008080400027
:1038c0000e00e80050789100804878001ea090001b
:1038d00011092000808040000e00e800607891000f
:1038e000804878001ea090002109200080804000c0
:1038f0000e00e80070789100804878001ea09000cb
:1039000031092000808040000e00e80020789100fe
:10391000804878001ea0900041092000808040006f
:103920000e00e80030789100804878001ea09000da
:1039300051092000808040000e00e800407891008e
:10394000804878001ea0900061092000808040001f
:103950000e00e80070709100804878001ea0900072
:1039600071092000808040000e00e800007891007e
:10397000804878001ea090008109200080804000cf
:103980000e00e80010789100804878001ea090009a
:1039900091092000808040000e00e80040709100f6
:1039a000804878001ea09000a1092000808040007f
:1039b0000e00e80050709100804878001ea0900032
:1039c000b1092000808040000e00e8006070910086
:1039d000804878001ea09000c1092000808040002f
:1039e0000e00e80010709100804878001ea0900042
:1039f000d1092000808040000e00e8002070910076
:103a0000804878001ea09000e109200080804000de
:103a10000e00e80030709100804878001ea09000f1
:103a2000f1092000808040000e00e80060689100ed
:103a3000804878001ea09000010a2000808040008d
:103a40000e00e80070689100804878001ea0900089
:103a5000110a2000808040000e00e80000709100f4
:103a6000804878001ea09000210a2000808040003d
:103a70000e00e80030689100804878001ea0900099
:103a8000310a2000808040000e00e800406891006c
:103a9000804878001ea09000410a200080804000ed
:103aa0000e00e80050689100804878001ea0900049
:103ab000510a2000808040000e00e800006891005c
:103ac000804878001ea09000610a2000808040009d
:103ad0000e00e80010689100804878001ea0900059
:103ae000710a2000808040000e00e80020689100ec
:103af000804878001ea09000810a2000808040004d
:103b00000e00e80050609100804878001ea09000f0
:103b1000910a2000808040000e00e8006060910063
:103b2000804878001ea09000a10a200080804000fc
:103b30000e00e80070609100804878001ea09000a0
:103b4000b10a2000808040000e00e8002060910053
:103b5000804878001ea09000c10a200080804000ac
:103b60000e00e80030609100804878001ea09000b0
:103b7000d10a2000808040000e00e80040609100e3
:103b8000804878001ea09000e10a2000808040005c
:103b90000e00e80070589100804878001ea0900048
:103ba000f10a2000808040000e00e80000609100d3
:103bb000804878001ea09000010b2000808040000b
:103bc0000e00e80010609100804878001ea0900070
:103bd000110b2000808040000e00e800405891004a
:103be000804878001ea09000210b200080804000bb
:103bf0000e00e80050589100804878001ea0900008
:103c0000310b2000808040000e00e80060589100d9
:103c1000804878001ea09000410b2000808040006a
:103c20000e00e80010589100804878001ea0900017
:103c3000510b2000808040000e00e80020589100c9
:103c4000804878001ea09000610b2000808040001a
:103c50000e00e80030589100804878001ea09000c7
:103c6000710b2000808040000e00e8006050910041
:103c7000804878001ea09000810b200080804000ca
:103c80000e00e80070509100804878001ea090005f
:103c9000910b2000808040000e00e8000058910049
:103ca000804878001ea09000a10b2000808040007a
:103cb0000e00e80030509100804878001ea090006f
:103cc000b10b2000808040000e00e80040509100c1
:103cd000804878001ea09000c10b2000808040002a
:103ce0000e00e80050509100804878001ea090001f
:103cf000d10b2000808040000e00e80000509100b1
:103d0000804878001ea09000e10b200080804000d9
:103d10000e00e80010509100804878001ea090002e
:103d2000f10b2000808040000e00e8002050910040
:103d3000804878000080fa0000000600c600fa0003
:103d400020a7980010c0b300304798000040eb0057
:103d5000204798000040eb00104798000040eb001f
:103d6000004f780010c0b3003047980010003700b3
:103d70003e4090000080fb00800078002ea0900064
:103d8000008140003e4090000080fb0080007800f1
:103d90002ea09000008040000000e9001040780054
:103da000004978003e4090000040e800304798000d
:103db000be409000f0c2b30080cf5000ecff360050
:103dc0003e4090000040e800304798002ea0900050
:103dd000f1052000808040002ea090000003b0007c
:103de000104078008048780010c3b3003047980036
:103df000100037003e4090000080fb0080007800fb
:103e00002ea09000008140003e4090000080fb000a
:103e1000800078002ea09000008040000000e800a4
:103e200010407800004978003e4090000040e800d3
:103e300030479800be409000f0c5b30080cf5000de
:103e4000ecff36003e4090000040e800304798000c
:103e500000c6b300304798000e0037003e40900087
:103e60000081fb003e4090000080fb008000780055
:103e70002ea0900000804000904078006400470031
:103e800000004100014878003e4090000040e800fa
:103e900030479800be409000f0c8b30080cf50007b
:103ea000eeff36002ea09000d008b00090407800c1
:103eb000214798002ea09000e008b00090407800c4
:103ec000114798002ea09000f008b000104f780025
:103ed00030c6b300304798000f0037003e409000d6
:103ee0000080fb00800078002ea090000081400040
:103ef0003e4090000080fb00e3005000640047005b
:103f00000080400010407800004978003e4090005a
:103f10000040e80030479800be409000f0c8b30071
:103f200080cf5000edff36002ea090000006b000bc
:103f3000ae409000014878002ea090001006b0001e
:103f40009e409000014878002ea090002006b0000e
:103f50001e4878002ea090000009b0009040780024
:103f6000214798002ea090001009b00090407800e2
:103f7000114798002ea090002009b000104f780043
:103f800000c9b30030479800100037003e40900051
:103f90000080fb00800078002ea09000008140008f
:103fa0003e4090000080fb00800078002ea0900032
:103fb0000080400063004000104078000049780015
:103fc0003e4090000040e80030479800be4090001e
:103fd000c0cbb30080cf5000ecff36002ea0900085
:103fe000d00bb000ae409000014878002ea09000a9
:103ff000e00bb0009e409000014878002ea0900099
:10400000f00bb0001e4878000080fa0000000600a7
:104010000000fa0050012000403a880060022000b1
:10402000303a880044c7bf00f043b20044e7b7000d
:10403000417420009140780000ceb30000c06000c1
:1040400044e7b7000080fa00000006000000fa0014
:10405000c042a900c062a900c082a9000080fa0085
:10406000000006000000fa0042c7a900002021005d
:1040700010368800300120002036880000402100e2
:1040800030368800005021005036880042c7a80012
:104090000080fa00000006000200fa00c442a900f5
:1040a000c462a9000000eb00000f78000300370095
:1040b000c462a800c462a9001e0fe800f00020003e
:1040c0009e0f1000faff3400c482a800c482a90029
:1040d0000080fa00000006000400fa000019200029
:1040e0001007980000222800000f78009e00900022
:1040f0001e00780037f807000af807000041eb00bf
:1041000081c7b300a0c0b300960207000041eb00d6
:104110008040eb00c0c0b300920207000041eb00fa
:10412000f1c1b300d0c0b3008e0207000041eb0024
:104130008040eb0020c0b3008a0207000041eb0082
:104140008040eb0030c0b300860207000041eb0066
:104150008040eb0020c1b300820207000041eb0069
:104160008040eb0030c1b3007e0207000041eb004d
:104170008040eb000040eb007a0207000041eb00ba
:10418000f1c1b30010c0b300760207000080fa004e
:10419000000006000000fa0021030700f0002000e4
:1041a0002909070000c3b300f702070050002000f0
:1041b0002509070000c3b300f30207001000200028
:1041c0002109070000c3b300ef0207001000200020
:1041d0001d09070080c3b300eb0207001000200098
:1041e0001909070080c1b300e7020700c0c0b3008f
:1041f000e502070010c0b300e302070060c0b3008f
:10420000e10207000080fa00000006000000fa004a
:104210008461a900411820009140780080cfb3004c
:1042200000c060006040b30084e1b7000000eb0014
:10423000000c88008a61a900a11820009140780034
:1042400080cfb30000c060006040b3008ae1b700d7
:104250000000eb00300c88009061a90001192000db
:104260009140780080cfb30000c060006040b30090
:1042700090e1b7000000eb00600c88001061a9001d
:104280000111200091407800f0ccb30000c0600024
:1042900001c2b3000140700010e1b7001021a90075
:1042a00010c1a900001020006008880011e1a800da
:1042b0001e61a900e111200091407800f0ccb3000c
:1042c00000c060000044a0001ee1b7001e21a9004c
:1042d0001ec1a900401f2000d00888001fe1a800cf
:1042e0000080fa00000006000000fa001061a9003a
:1042f0000111200091407800f0ccb30000c06000b4
:1043000010e1b7001021a90010c1a90094e0a80095
:1043100084e0a900803e20006008880081e0a800b9
:10432000710a20009140780000c7b30000c07000ff
:10433000a7e0b70011e1a8000080fa000000060025
:104340000000fa000000eb00200888008460a9004b
:10435000510a200091407800f0c8b30000c060000e
:1043600001c6b30001407000a5e0b7009460a8004a
:104370000000eb00000888000080eb0010088800b7
:1043800005e1a8000080fa00000006000000fa0025
:1043900010802800001188000040200010118800c3
:1043a00040012000401188000080fa000000060053
:1043b0000000fa00c962a9000001280080088800f6
:1043c000000128009008880060002000200c880070
:1043d00060002000500c880060002000800c8800e5
:1043e00060002000b00c88000080eb00100c8800fa
:1043f0000000eb00000c88000080eb00400c8800ff
:104400000000eb00300c88000080eb00700c88008e
:104410000000eb00600c88000080eb00a00c88001e
:104420000000eb00900c88000080fa0000000600fd
:104430000000fa000080eb00601988002c03a9003e
:104440002c23a9002c43a9002c63a9002c83a900cc
:104450002143a90023c3bf007f40600023e3b700ce
:1044600025e3a90030c0b30024e3b7005132200097
:104470009140780000ceb30000c06000f040b3006f
:1044800025e3b7003132200091407800c0cfb3005f
:1044900000c0600023e3b7002043a90020c3bf0091
:1044a0007f40600020e3b700113220009140780087
:1044b000c0cfb30000c060000004a00021e3b7003b
:1044c00021e3a8000080fa00000006000000fa00c6
:1044d0000080eb00601988002c03a9002c23a900a0
:1044e0002c43a9002c63a9002143a90023c3bf00ca
:1044f0007f40600023e3b70025e3a90030c0b3008c
:1045000024e3b700513220009140780000ceb30080
:1045100000c06000f040b30025e3b70028e3a90025
:10452000813220009140780000ceb30000c06000ce
:104530000014a00028e3b700313220009140780039
:10454000c0cfb30000c0600023e3b7002043a80041
:10455000013220009140780000ceb30000c070000e
:1045600020e3b7001132200091407800c0cfb300a3
:1045700000c060000004a00021e3b70021e3a80010
:104580000080fa00000006000000fa004ba7a90016
:104590004ae7a8004bc7bf007040b3004be7b70025
:1045a000013f20009140780000c8b30000c06000c7
:1045b0003040b300f0e3b7000000eb00a01f88001c
:1045c000f103a800f3e3a800f2e3a800f1e3a800d8
:1045d0000080fa00000006000000fa0021e3a900b4
:1045e000c0ff21006019880023c3bf007f40600026
:1045f00023e3b700a0c0b30024e3b70025e3a9007c
:104600003132200091407800c0cfb30000c060007c
:1046100023e3b70028e3a90001322000914078008d
:1046200000ceb30000c0700020e3b700513220007c
:104630009140780000ceb30000c06000a040b300fd
:1046400025e3b7001132200091407800c0cfb300bd
:1046500000c060000004a00021e3b7002043a800d0
:104660002143a80021e3a8000080fa000000060012
:104670000000fa00f1e3a9004ba7a9004ae7a8004f
:104680004bc7bf007040b3004be7b700013f2000ad
:104690009140780000c8b30000c060003040b30013
:1046a000f0e3b7000000eb00a01f8800f103a800b2
:1046b000f3e3a800f2e3a800f1e3a8000080fa0009
:1046c000000006000200fa00000f780028e3a900ad
:1046d0001e0078007f4060007f4160008132200032
:1046e0009140780000ceb30000c06000024070002e
:1046f00028e3b7002023a800a0002000e907070056
:104700002023a90020c3bf00614060000004e00036
:10471000fcff3200001880000080fa000000060054
:104720000400fa00000f7800110798001e007800be
:10473000c01f88001e009000b01f88000080fa0093
:10474000000006000800fa001007980021079800f2
:10475000320798000000eb00000f780011003700ce
:10476000be0090001e0078000088b9004781de007e
:10477000ae0090001e0078000088b900c781de00fe
:104780009e0090001e0078000088b9004780de007f
:10479000830078001e00070050002000aa070700d1
:1047a0001e0fe800f00720009e0f1000ecff340001
:1047b000f0072000000f780011003700be009000c5
:1047c0001e0078000088b9004781de00ae0090002e
:1047d0001e0078000088b900c781de009e009000ae
:1047e0001e0078000088b9004780de008300780052
:1047f0000700070050002000930707001e0fe90084
:104800001e00e000edff3c000080fa000000060002
:104810000600fa00000f78001107980022079800a0
:104820001e007800000c88001e009000300c8800ec
:104830002e009000600c88000080fa000000060046
:104840000400fa0010079800c462a900c482a900fd
:104850000040eb00004f78000d003700c462a80054
:10486000c462a9001e009000610060000004e00026
:1048700002003200c442a80001003700c442a9006f
:104880001e0090000000d100100798001e4fe800a5
:1048900000c1b3009e4f1000f0ff3600c482a80094
:1048a000c482a9000080fa00000006000c00fa0093
:1048b00020079800310798002e00900040079800cc
:1048c0004e009000e40f5000230032004e00900094
:1048d000e40f50000a003e004e009000e20f50002e
:1048e000170032004e009000e20f500017003e000b
:1048f0004e009000e10f50000e00320025003700fe
:104900004e009000e60f5000190032004e0090005b
:10491000e60f5000130039004e009000e70f5000e2
:10492000160032004e009000e80f500016003200d2
:104930001800370000002800100798001700370003
:1049400000002a00100798001400370000802a0099
:10495000100798001100370000a02a0010079800e7
:104960000e00370000a82a00100798000b0037003f
:1049700000aa2a00100798000800370080aa2a0021
:104980001007980005003700a0aa2a001007980019
:10499000020037000000eb00100798003e00900076
:1049a000500798005e009000e40f50002300320092
:1049b0005e009000e40f50000a003e005e00900090
:1049c000e20f5000170032005e009000e20f50002e
:1049d00017003e005e009000e10f50000e00320014
:1049e000250037005e009000e60f500019003200ed
:1049f0005e009000e60f5000130039005e0090004a
:104a0000e70f5000160032005e009000e80f5000e3
:104a1000160032001800370000002400000f780054
:104a20001700370000002500000f78001400370041
:104a300000402500000f78001100370000502500cd
:104a4000000f78000e00370000542500000f78009a
:104a50000b00370000552500000f780008003700d4
:104a600040552500000f78000500370050552500ff
:104a7000000f7800020037000000eb00000f780004
:104a80001e0090001e0070006dff07000080fa00fd
:104a9000000006000200fa00004f780023c2bf00a9
:104aa000624060000004e000fcff3a001e80fb0052
:104ab000201188000080fa00000006000400fa00bf
:104ac00010079800070037001e0090009040780003
:104ad0001e0090000000e8001007980001407800d8
:104ae000ecff07001e009000104078000004e0007a
:104af000f5ff3a000040eb00004f78000700370058
:104b00001e80fb00800078001e00900000804000a6
:104b100010407800ac0007001e4fe8001e80fb002c
:104b2000800078001e009000008040001040780057
:104b30000004e000f2ff3a000080fa0000000600e6
:104b40000000fa0022c2bf00614060000004e000e3
:104b5000fcff3200301180000000fb000080fa00f2
:104b6000000006000400fa00004f7800114798008a
:104b7000224798009cf5070006c2bf006140600014
:104b80000004e000fcff3a002e40900001c4b30096
:104b9000014070007ef507002c0007001e407800e1
:104ba0007bf50700290007001e40900078f50700fc
:104bb000260007008ef5070006c2bf0064406000b3
:104bc0000004e000fcff3a000080fa00000006004c
:104bd0000400fa00204798003147980082f507004a
:104be00006c2bf00614060000004e000fcff3a0024
:104bf000be40900000c4b30000c0700064f5070020
:104c0000120007002e40900061f507000f0007001a
:104c100073f5070043f50700be40900010c4b300d1
:104c200000c070005af507000800070050f50700a3
:104c3000004f780064f507006df5070039f50700af
:104c40001e80fb000080fa00000006000000fa0051
:104c500008c2bf00614060000004e000fcff3a00b1
:104c600009c2bf000044b2000004e000fcff3a00ab
:104c700009c2bf0001c8b300014060000004e000a9
:104c8000fbff3a000080fa00000006000400fa0072
:104c90008040eb0030c1b300cdff07000080fb0077
:104ca000100798000000eb00000f78001e00900035
:104cb0004400de00610060000000e00001003a00f6
:104cc0001e00a0001e0090004300de006100600096
:104cd0000000e00001003a001e10a0001e0090003d
:104ce0004200de00610060000000e00001003a00c8
:104cf0001e20a0001e0090000000d1006100600096
:104d00000000e00001003a001e30a0001e009000ec
:104d1000610060000000e00001003a001e40a000b9
:104d20001e0078000080fb000080fa0000000600f2
:104d30000400fa0010079800390007000040eb005b
:104d4000004f7800070037001e80fb0080007800cd
:104d50001e00900000804000104078001a000700fc
:104d60001e4fe8001e80fb00800078001e009000af
:104d700000804000104078000004e000f2ff3a009c
:104d80000080fa00000006000200fa00004f7800e0
:104d90000041eb0001c4b30030c1b30071ff070054
:104da0000041eb009e40780020c1b3006dff07007a
:104db0000041eb008040eb0030c1b30069ff070009
:104dc0000080fa00000006000200fa00004f7800a0
:104dd000a0c0b3009e4f100003003a0000ccb30007
:104de000e9ff07000c0037000041eb0001ccb300e5
:104df00030c1b3005bff07000041eb009e4078002c
:104e000020c1b30057ff07000041eb0001c8b30009
:104e100030c1b30053ff07000080fa000000060015
:104e20000000fa0010c0b300d7ff070060c0b30055
:104e3000d5ff07000080fa00000006000000fa001d
:104e400080c0b300d0ff070010002000fe0507005f
:104e50000080fa00000006000200fa00000f78004f
:104e6000efff07001e007800020007000080fa0034
:104e7000000006000200fa00000f7800040037006e
:104e80001e007800104078001e0fe800ceff0700db
:104e90001e007800104078000004e000f8ff3a009f
:104ea0000080fa00000006000200fa00004f7800bf
:104eb0001e4078006f4060000043b000004f780053
:104ec00090c3b3009e4f1000040036001e407800cf
:104ed0006740400010479800020037001e407800ed
:104ee000104798001e409000b7ff07000080fa00ae
:104ef000000006000200fa00004f78001e80fb0050
:104f00004400de00e8ff07001e407800e6ff0700cf
:104f10000080fa00000006000200fa00000f78008e
:104f20001e0078004800de00f2ff07001e00780037
:104f3000f0ff07000080fa00000006000400fa00fd
:104f4000008fbe001e00be004008de0001002000f1
:104f5000f1ff07001e007800efff07000080fa0055
:044f60000000060047
:020000040000fa
:104f64008813000050000000020000000016360004
:104f7400de58f600c0a8010082ffff00ff00c00059
:104f8400a801010075426f006172640020202000b6
:104f9400202020002020200020202000202020008d
:104fa400202020002020200020202000202020007d
:104fb400202020002020200020576500622062006d
:104fc4006f61720064207300697465000000000062
:104fd4000000000000000000840f00000404000032
:104fe4000000000000080000840700000200000028
:104ff4001000010000000100000001000100010098
:105004000100010001000100010000000100000096
:105014000100000001010000010100000101000085
:105024000001000000010000000101000001010076
:105034000001010000000100000001000100010066
:105044000100010001000100010000000100000056
:105054000100000001010000010100000101000045
:105064000001000000010000000101000001010036
:105074000001010000000100000001000100010026
:105084000100010001000100010000000100000016
:105094000100000000010000000100000001000008
:1050a40000010000000100000001010000010100f6
:1050b40000010100000001000000010001000100e6
:1050c40001000100010001000100000001000000d6
:1050d40001000000000100000001000000010000c8
:1050e40000010000000100000001010000010100b6
:1050f40000010100000000000000000000000000aa
:10510400000000000000000000000000000000009b
:10511400000000000000000000000000000000008b
:10512400000000000000000000000000000000007b
:10513400000000000000000000000000000000006b
:10514400000000000000000000000000000000005b
:10515400000000000000000000000000000000004b
:10516400000000000000000000000000000000003b
:10517400000000000000000000000000000000002b
:10518400000000000000000000000000000000001b
:10519400000000000000000000000000000000000b
:1051a40000000000000000000000000000000000fb
:1051b40000000000000100000000000000000000ea
:1051c40000000000000000000000000000000000db
:1051d40000000000000000000000000000000000cb
:1051e40000000000000000000000000000000000bb
:1051f40000000100010101000101010001010100a1
:10520400010101000101010001010100010101008e
:10521400010101000101010001010100010101007e
:10522400010101000101010001010100010101006e
:10523400010101000101010001010100010101005e
:10524400010101000101010001010100010101004e
:10525400010101000101010001010100010101003e
:10526400010101000101010001010100010101002e
:10527400010101000101010001010100010101001e
:10528400010101000101010001010100010101000e
:1052940001010100010101000101010001010100fe
:1052a40001010100010101000101010001010100ee
:1052b40001010100010101000101010001010100de
:1052c40001010100010101000101010001010100ce
:1052d40001010100010101000101010001010100be
:1052e40001010100010101000101010001010100ae
:1052f40001010000000100000001000000010000a5
:105304000001000000010000000100000001000095
:105314000001000000010000000100000001000085
:105324000001000000010000000100000001000075
:105334000001000000010000000100000001000065
:105344000001000000010000000100000001000055
:105354000001000000010000000100000001000045
:105364000001000000010000000100000001000035
:105374000001000000010000000100000001000025
:105384000001000000010000000100000001000015
:105394000001000000010000000100000001000005
:1053a40000010000000100000001000000010000f5
:1053b40000010000000100000001000000010000e5
:1053c40000010000000100000001000000010000d5
:1053d40000010000000100000001000000010000c5
:1053e40000010000000100000001000000010000b5
:1053f40000010000010000000100000001000000a5
:105404000100000001000000010000000100000094
:105414000100000001000000010000000100000084
:105424000100000001000000010000000100000074
:105434000100000001000000010000000100000064
:105444000100000001000000010000000100000054
:105454000100000001000000010000000100000044
:105464000100000001000000010000000100000034
:105474000100000001000000010000000100000024
:105484000100000001000000010000000100000014
:105494000100000001000000010000000100000004
:1054a40001000000010000000100000001000000f4
:1054b40001000000010000000100000001000000e4
:1054c40001000000010000000100000001000000d4
:1054d40001000000010000000100000001000000c4
:1054e40001000000010000000100000001000000b4
:1054f40001000100000001000000010000000100a3
:105504000000010000000100000001000000010093
:105514000000010000000100000001000000010083
:105524000000010000000100000001000000010073
:105534000000010000000100000001000000010063
:105544000000010000000100000001000000010053
:105554000000010000000100000001000000010043
:105564000000010000000100000001000000010033
:105574000000010000000100000001000000010023
:105584000000010000000100000001000000010013
:105594000000010000000100000001000000010003
:1055a40000000100000001000000010000000100f3
:1055b40000000100000001000000010000000100e3
:1055c40000000100000001000000010000000100d3
:1055d40000000100000001000000010000000100c3
:1055e40000000100000001000000010000000100b3
:1055f40000000000010100000101000001010000a1
:10560400010100000101000001010000010100008e
:10561400010100000101000001010000010100007e
:10562400010100000101000001010000010100006e
:10563400010100000101000001010000010100005e
:10564400010100000101000001010000010100004e
:10565400010100000101000001010000010100003e
:10566400010100000101000001010000010100002e
:10567400010100000101000001010000010100001e
:10568400010100000101000001010000010100000e
:1056940001010000010100000101000001010000fe
:1056a40001010000010100000101000001010000ee
:1056b40001010000010100000101000001010000de
:1056c40001010000010100000101000001010000ce
:1056d40001010000010100000101000001010000be
:1056e40001010000010100000101000001010000ae
:1056f400010101000001010000010100000101009d
:10570400000101000001010000010100000101008d
:10571400000101000001010000010100000101007d
:10572400000101000001010000010100000101006d
:10573400000101000001010000010100000101005d
:10574400000101000001010000010100000101004d
:10575400000101000001010000010100000101003d
:10576400000101000001010000010100000101002d
:10577400000101000001010000010100000101001d
:10578400000101000001010000010100000101000d
:1057940000010100000101000001010000010100fd
:1057a40000010100000101000001010000010100ed
:1057b40000010100000101000001010000010100dd
:1057c40000010100000101000001010000010100cd
:1057d40000010100000101000001010000010100bd
:1057e40000010100000101000001010000010100ad
:1057f400000101000100010001000100010001009d
:10580400000001000100010001000100010001008d
:10581400010001000100010001000100010001007c
:10582400000001000100010001000100010001006d
:10583400010001000100010001000100010001005c
:10584400000001000100010001000100010001004d
:10585400010001000100010001000100010001003c
:10586400000001000100010001000100010001002d
:10587400010001000100010001000100010001001c
:10588400000001000100010001000100010001000d
:1058940001000100010001000100010001000100fc
:1058a40000000100010001000100010001000100ed
:1058b40001000100010001000100010001000100dc
:1058c40000000100010001000100010001000100cd
:1058d40001000100010001000100010001000100bc
:1058e40000000100010001000100010001000100ad
:1058f4000100010001010100010101000101010099
:105904000101010001010100010101000101010087
:105914000101010001010100010101000101010077
:105924000101010001010100010101000101010067
:105934000101010001010100010101000101010057
:105944000101010001010100010101000101010047
:105954000101010001010100010101000101010037
:105964000101010001010100010101000101010027
:105974000101010001010100010101000101010017
:105984000101010001010100010101000101010007
:1059940001010100010101000101010001010100f7
:1059a40001010100010101000101010001010100e7
:1059b40001010100010101000101010001010100d7
:1059c40001010100010101000101010001010100c7
:1059d40001010100010101000101010001010100b7
:1059e40001010100010101000101010001010100a7
:1059f4000101010001000000d813000006000000ae
:085a040000000000000000009a
:020000040000fa
:105a0c000200fa00004f78001e04e00007003a0084
:105a1c0001c1b30010402000f2010700104020002b
:105a2c001d0207000004e000fcff3a000080fa00b1
:105a3c00000006000200fa00004f78001e04e0008f
:105a4c0007003a0081c0b30010402000e5010700b8
:105a5c0010402000100207000004e000fcff3a0098
:105a6c000080fa00000006000800fa0020479800a9
:105a7c0031479800220798000040eb00004f780057
:105a8c002e4090000004e000030032001e80fb005a
:105a9c00300798002600370030402000fe01070038
:105aac000004e00002003a002e409000d4ff0700f2
:105abc00be40900000402000ca010700ae009000dc
:105acc0000f02f00008060004800de00804078006d
:105adc0040402000c30107002e0090008040780059
:105aec0050402000bf01070011c0b300104020003f
:105afc00bc01070010402000e70107000004e00093
:105b0c00fcff3a0030402000e3010700f34f500047
:105b1c0003003a0010c0b300004f780002003700b9
:105b2c002e409000b6ff07001e80fb003007980047
:105b3c003e0090000080fa00000006000600fa000b
:105b4c00204798000040eb00004f78002e4090005a
:105b5c000004e000030032001e80fb0020079800c8
:105b6c001600370030402000cb010700f34f5000e7
:105b7c0010003a0021c0b30010402000990107002a
:105b8c0010402000c40107000004e000fcff3a00b4
:105b9c0030402000c0010700f44f500003003a00d1
:105bac0010c0b300004f7800020037002e40900068
:105bbc0093ff07001e80fb00200798002e0090002a
:105bcc000080fa00000006001400fa00881f78001c
:105bdc00204f980061079800720798007e00900093
:105bec000000e000030032002e4890000004e000aa
:105bfc00030032000000eb00100f98006900370022
:105c0c0000422000a40107000080fb001007980050
:105c1c009e009000f00f2000008060004804dd0022
:105c2c00104220009c0107000080fb000000440093
:105c3c00100798001f003700100020007f0207009b
:105c4c0000422000940107000080fb001007980020
:105c5c009e009000f00f2000008060004804dd00e2
:105c6c00104220008c0107000080fb000000440063
:105c7c00100798000040eb0000579800803e200071
:105c8c009e0f10000200360010c0b30000579800a1
:105c9c001e0fe8000e5090000004e00005003200da
:105cac002e48900063ff07000000eb00100f9800d7
:105cbc003c0037009e0090007e009000808f5000ca
:105ccc00ddff390040422000730107000080fb001b
:105cdc0040079800ce009000f00f2000008060007c
:105cec004804dd00504220006b0107000080fb00df
:105cfc000000440030079800130037007e0090002d
:105d0c000000e90070079800be009000f07f2000b2
:105d1c008080600000002400008040002007980074
:105d2c006e009000904078002e0090002d0107002e
:105d3c003e0090000000e800300798006e009000d4
:105d4c000000e800600798007e0090000000e00072
:105d5c00eaff3a00be00900000f02f0000806000c7
:105d6c004800de0080407800404220001d01070002
:105d7c003e0090008040780050422000190107003e
:105d8c0001c2b30010402000160107001040200093
:105d9c00410107000004e000fcff3a001000200065
:105dac00100f98001e0890004f0478000080fa0035
:105dbc00000006000e00fa00881f7800604798006b
:105dcc0041079800520798005e0090000000e00028
:105ddc00030032006e4090000004e000030032002b
:105dec0010002000600798003f003700de00900094
:105dfc0010402000808f500002003600f03f200041
:105e0c005007980080422000230107000080fb000f
:105e1c0020079800ae009000f00f2000008060007a
:105e2c004804dd00904220001b0107000080fb00ad
:105e3c000000440010079800130037005e0090002b
:105e4c000000e900500798009e009000f07f2000b1
:105e5c008080600000002600008f40001e0078004b
:105e6c000d010700804078004e009000014878003a
:105e7c001e0090000000e800100798004e009000f3
:105e8c000000e800400798005e0090000000e00071
:105e9c00eaff3a00ce0090000040eb00804878000a
:105eac009e00900000f02f00008060004800de0093
:105ebc008040780080422000ca0007001e0090003d
:105ecc008040780090422000c600070001c4b30057
:105edc0010402000c300070010002000d70107006d
:105eec0010002000600798006e0090004f047800ae
:105efc000080fa00000006000000fa00881f7800fd
:105f0c0060422000e40007000080fb004804dd0034
:105f1c0070422000e00007000080fb0000004400fd
:105f2c004f0478000080fa00000006000a00fa0016
:105f3c0020079800310798003e009000b7f007004a
:105f4c00000f78000000eb00100798000e003700df
:105f5c009e0090002e009000008040001e017800f2
:105f6c00be009000b3f007000000e00003003a0010
:105f7c001e009000400798000b0037001e00900098
:105f8c000000e800100798009e0090002e00900082
:105f9c0000804000104078000004e000ecff3a0064
:105fac000080eb00400798004e0090000080fa0043
:105fbc00000006000000fa0042c7a9007000200093
:105fcc0040358800007020001036880080002000ca
:105fdc002036880042c7a800c8e2a800c082a900e9
:105fec00c962a900cd62a8000080fa00000006007a
:105ffc000000fa008540a9009540a90040c2a90004
:10600c004382a9004362a9004342a9004302a900ac
:10601c0042e2a90042c2a90042a2a8004322a90060
:10602c0041e2a8000080fa00000006000800fa0017
:10603c00000f78001107980022079800330798008a
:10604c0001c8b3000000eb00660007001000200040
:10605c007a0107001e0078009040780010002000a4
:10606c00600007001e00e80090407800200020002f
:10607c005c0007001e80e800904078003000200093
:10608c00580007009e007800638040009040780024
:10609c00400020005300070010002000670107009b
:1060ac001e00900090407800900020004d000700ea
:1060bc001e0090000000e80090407800a000200036
:1060cc00480007001e0090000080e8009040780017
:1060dc00b0002000430007001e0090006300400049
:1060ec0090407800c00020003e0007001e00900089
:1060fc006400400090407800d00020003900070078
:10610c001e0090006500400090407800e0002000e8
:10611c003400070010002000480107002e009000fa
:10612c0090407800500020002e0007002e009000b8
:10613c000000e80090407800600020002900070073
:10614c002e0090000080e800904078007000200045
:10615c00240007002e00900063004000904078005f
:10616c00800020001f0007001000200033010700f2
:10617c003e00900090407800f000200019000700cd
:10618c003e0090000000e8009040780000012000e4
:10619c00140007003e0090000080e800904078005a
:1061ac00100120000f0007003e009000630040002b
:1061bc0090407800200120000a0007001000200009
:1061cc001e01070051c0b300a0012000050007000c
:1061dc0051c0b300b0012000020007000080fa009b
:1061ec00000006000600fa001007980041479800ce
:1061fc00cd62a90040128000000f7800000f200033
:10620c004012880040c2bf00614060000004e00002
:10621c00fcff320040128000000f78009e009000be
:10622c0000f02f00008060004800de004012880063
:10623c0040c2bf00614060000004e000fcff32007f
:10624c0040128000000f78009e009000f00f20009c
:10625c00008060004012880040c2bf0061406000b6
:10626c000004e000fcff320040128000000f7800b8
:10627c004e4090000080fb004012880040c2bf00de
:10628c00614060000004e000fcff3200cd62a80019
:10629c000080fa00000006000400fa0010079800c5
:1062ac00cd62a90040128000000f7800f0002000a1
:1062bc004012880040c2bf00614060000004e00052
:1062cc00fcff320040128000000f78009e0090000e
:1062dc0000f02f00008060004800de0040128800b3
:1062ec0040c2bf00614060000004e000fcff3200cf
:1062fc0040128000000f78009e009000f00f2000ec
:10630c00008060004012880040c2bf006140600005
:10631c000004e000fcff320040128000000f780007
:10632c0040c2a9000000eb004012880040c2bf0030
:10633c00614060000004e000fcff3200cd62a80068
:10634c00401280000080fb000080fa000000060074
:10635c001e00fa000040eb0084efb7000000eb00d9
:10636c00309c88000040eb00dcf3b700f1f707002d
:10637c00a3f7070050012000403a8800600220007b
:10638c00303a880044c7bf00f043b20044e7b7007e
:10639c00417420009140780000ceb30000c0600032
:1063ac0044e7b70049f7070077f70700a039210049
:1063bc005cfa0700fffe07000dff0700e338210021
:1063cc0022392100813821006039210017ff070094
:1063dc00c962a900cd62a800e9f7070000003700e8
:1063ec0030402000acff0700604798006e409000e2
:1063fc000080fb00600f98006e089000f80f5000b2
:10640c008b003200ee089000f88f500007003c0023
:10641c006e0890000000e00009003200ee089000c9
:10642c00f78f500013003200edff3700ee0890009c
:10643c007a805000e30f5000e9ff3e007c003700eb
:10644c0084cfbf000205200011c0b30086fd0700f9
:10645c000004e000e2ff320084cfbf00b7fd07006c
:10646c000004e000deff3a0010002000730007007b
:10647c00dbff3700a0fe0700200798002e009000dd
:10648c000000e0006700320084cfbf002e019000b6
:10649c0051f8200047fe07000000e000d0ff32005a
:1064ac0050f8200082f9070050f82000011729004d
:1064bc009efe0700000f780050f82000611729009d
:1064cc009afe0700100798001e00e00003003d0034
:1064dc001e0090000000e0004f0035001e009000f0
:1064ec000000e0000800350050f82000d11729000a
:1064fc008efe07000000e00003003400dcd3bf0078
:10650c000040e800dcf3b70050f820000206200041
:10651c00e118290058ef070050f82000411e29000f
:10652c0032ef070050f820003cef07000001780024
:10653c0084cfbf0051f82000a3fd07000000e0004d
:10654c00a7ff320033fa0700dcd3bf0066fa07005e
:10655c00dcd3bf00e14f500006003a007100470049
:10656c00812d290006000900315878007000b10017
:10657c000500370067004700812d2900060009003f
:10658c00315878007000b10050f820004203200010
:10659c00012e290038ef070050f82000e7004700d3
:1065ac0012ef070050f82000f13029000fef070020
:1065bc0050f82000b13129000cef070050f82000f2
:1065cc00f100470009ef070050f82000b134290012
:1065dc0006ef070050f82000a135290003ef070053
:1065ec0050f820009136290000ef070050f82000e9
:1065fc0011382900fdee070050f8200007ef0700c6
:10660c000001780084cfbf0051f820006efd070018
:10661c000000e00072ff320084cfbf0005fd0700d0
:10662c006fff370010002000040007006cff3700dc
:10663c0084cfbf00f2fc070069ff37000600fa00a8
:10664c00200798000c00370090e220000100200089
:10665c00008fbe00040037000080eb008080eb0050
:10666c001e0f40005e9748001e00be00e00f500059
:10667c00e08f5800f8ff3a002e0090000000e9006f
:10668c00200798002e009000e10f4000eeff3a002a
:10669c000080fa00000006000600fa0020079800af
:1066ac000c0037004000200001002000008fbe00cd
:1066bc00040037000080eb008080eb001e0f4000d0
:1066cc005e9748001e00be00e00f5000e08f58009f
:1066dc00f8ff3a002e0090000000e9002007980017
:1066ec002e009000e10f4000eeff3a000080fa000f
:0466fc000000060094
:020000040000fa
:086700000040da000000fe0079
:00000001FF
